{
  "contractName": "Rating",
  "abi": [
    {
      "constant": true,
      "inputs": [
        {
          "name": "",
          "type": "string"
        }
      ],
      "name": "ratingsReceived",
      "outputs": [
        {
          "name": "",
          "type": "uint8"
        }
      ],
      "payable": false,
      "stateMutability": "view",
      "type": "function"
    },
    {
      "constant": true,
      "inputs": [
        {
          "name": "",
          "type": "uint256"
        }
      ],
      "name": "movieList",
      "outputs": [
        {
          "name": "",
          "type": "string"
        }
      ],
      "payable": false,
      "stateMutability": "view",
      "type": "function"
    },
    {
      "inputs": [
        {
          "name": "movieNames",
          "type": "string[]"
        }
      ],
      "payable": false,
      "stateMutability": "nonpayable",
      "type": "constructor"
    },
    {
      "constant": true,
      "inputs": [
        {
          "name": "movie",
          "type": "string"
        }
      ],
      "name": "totalVotesFor",
      "outputs": [
        {
          "name": "",
          "type": "uint8"
        }
      ],
      "payable": false,
      "stateMutability": "view",
      "type": "function"
    },
    {
      "constant": false,
      "inputs": [
        {
          "name": "movie",
          "type": "string"
        }
      ],
      "name": "voteForMovie",
      "outputs": [],
      "payable": false,
      "stateMutability": "nonpayable",
      "type": "function"
    }
  ],
  "bytecode": "0x60806040523480156200001157600080fd5b50604051620009e6380380620009e68339810180604052620000379190810190620002c3565b80600190805190602001906200004f92919062000057565b5050620003c2565b828054828255906000526020600020908101928215620000ab579160200282015b82811115620000aa57825182908051906020019062000099929190620000be565b509160200191906001019062000078565b5b509050620000ba919062000145565b5090565b828054600181600116156101000203166002900490600052602060002090601f016020900481019282601f106200010157805160ff191683800117855562000132565b8280016001018555821562000132579182015b828111156200013157825182559160200191906001019062000114565b5b50905062000141919062000176565b5090565b6200017391905b808211156200016f57600081816200016591906200019e565b506001016200014c565b5090565b90565b6200019b91905b80821115620001975760008160009055506001016200017d565b5090565b90565b50805460018160011615610100020316600290046000825580601f10620001c65750620001e7565b601f016020900490600052602060002090810190620001e6919062000176565b5b50565b600082601f830112620001fc57600080fd5b8151620002136200020d8262000336565b62000308565b9150818183526020840193506020810190508360005b838110156200025d578151860162000242888262000267565b84526020840193506020830192505060018101905062000229565b5050505092915050565b600082601f8301126200027957600080fd5b8151620002906200028a826200035f565b62000308565b91508082526020830160208301858383011115620002ad57600080fd5b620002ba8382846200038c565b50505092915050565b600060208284031215620002d657600080fd5b600082015167ffffffffffffffff811115620002f157600080fd5b620002ff84828501620001ea565b91505092915050565b6000604051905081810181811067ffffffffffffffff821117156200032c57600080fd5b8060405250919050565b600067ffffffffffffffff8211156200034e57600080fd5b602082029050602081019050919050565b600067ffffffffffffffff8211156200037757600080fd5b601f19601f8301169050602081019050919050565b60005b83811015620003ac5780820151818401526020810190506200038f565b83811115620003bc576000848401525b50505050565b61061480620003d26000396000f3fe608060405234801561001057600080fd5b506004361061004c5760003560e01c80630991aec6146100515780634a3bf37714610081578063a06914ff146100b1578063bf58ae3d146100cd575b600080fd5b61006b6004803603610066919081019061032a565b6100fd565b6040516100789190610487565b60405180910390f35b61009b6004803603610096919081019061036b565b610133565b6040516100a89190610487565b60405180910390f35b6100cb60048036036100c6919081019061036b565b610167565b005b6100e760048036036100e291908101906103ac565b6101b4565b6040516100f49190610465565b60405180910390f35b6000818051602081018201805184825260208301602085012081835280955050505050506000915054906101000a900460ff1681565b60008082604051610144919061044e565b908152602001604051809103902060009054906101000a900460ff169050919050565b6001600082604051610179919061044e565b908152602001604051809103902060008282829054906101000a900460ff160192506101000a81548160ff021916908360ff16021790555050565b600181815481106101c157fe5b906000526020600020016000915090508054600181600116156101000203166002900480601f0160208091040260200160405190810160405280929190818152602001828054600181600116156101000203166002900480156102655780601f1061023a57610100808354040283529160200191610265565b820191906000526020600020905b81548152906001019060200180831161024857829003601f168201915b505050505081565b600082601f83011261027e57600080fd5b813561029161028c826104cf565b6104a2565b915080825260208301602083018583830111156102ad57600080fd5b6102b8838284610570565b50505092915050565b600082601f8301126102d257600080fd5b81356102e56102e0826104fb565b6104a2565b9150808252602083016020830185838301111561030157600080fd5b61030c838284610570565b50505092915050565b600081359050610324816105c3565b92915050565b60006020828403121561033c57600080fd5b600082013567ffffffffffffffff81111561035657600080fd5b6103628482850161026d565b91505092915050565b60006020828403121561037d57600080fd5b600082013567ffffffffffffffff81111561039757600080fd5b6103a3848285016102c1565b91505092915050565b6000602082840312156103be57600080fd5b60006103cc84828501610315565b91505092915050565b60006103e082610532565b6103ea818561054e565b93506103fa81856020860161057f565b80840191505092915050565b600061041182610527565b61041b818561053d565b935061042b81856020860161057f565b610434816105b2565b840191505092915050565b61044881610563565b82525050565b600061045a82846103d5565b915081905092915050565b6000602082019050818103600083015261047f8184610406565b905092915050565b600060208201905061049c600083018461043f565b92915050565b6000604051905081810181811067ffffffffffffffff821117156104c557600080fd5b8060405250919050565b600067ffffffffffffffff8211156104e657600080fd5b601f19601f8301169050602081019050919050565b600067ffffffffffffffff82111561051257600080fd5b601f19601f8301169050602081019050919050565b600081519050919050565b600081519050919050565b600082825260208201905092915050565b600081905092915050565b6000819050919050565b600060ff82169050919050565b82818337600083830152505050565b60005b8381101561059d578082015181840152602081019050610582565b838111156105ac576000848401525b50505050565b6000601f19601f8301169050919050565b6105cc81610559565b81146105d757600080fd5b5056fea265627a7a72305820366981d5a9408560b2979f8be38ab39d8a580d2dfd43214f6e8bb917805016026c6578706572696d656e74616cf50037",
  "source": "//pragma solidity ^0.5.8;\npragma experimental ABIEncoderV2;\n// We have to specify what version of compiler this code will compile with\n\ncontract Rating {\n  /* mapping field below is equivalent to an associative array or hash.\n  */\n  \n  mapping (string => uint8) public ratingsReceived;\n  \n  /* We will use an array of bytes32 to store the list of movies\n  */\n  \n  string[] public movieList;\n\n  /* This is the constructor which will be called once when you\n  deploy the contract to the blockchain. When we deploy the contract,\n  we will pass an array of movies for which users will give ratings\n  */\n  constructor(string[] memory movieNames) public {\n    movieList = movieNames;\n  }\n\n  // This function returns the total ratings a movie has received so far\n  function totalVotesFor(string memory movie) view public returns (uint8) {\n    return ratingsReceived[movie];\n  }\n\n  // This function increments the vote count for the specified movie. Equivalent to upvoting\n  function voteForMovie(string memory movie) public {\n    ratingsReceived[movie] += 1;\n  }\n}\n",
  "sourcePath": "/home/parikshit/movieRatingApp/rating/contracts/Rating.sol",
  "compiler": {
    "name": "solc",
    "version": "0.5.8+commit.23d335f2.Emscripten.clang"
  },
  "schemaVersion": "3.0.16",
  "updatedAt": "2019-09-15T15:02:13.685Z",
  "devdoc": {
    "methods": {}
  },
  "userdoc": {
    "methods": {}
  }
}